:020000040000FA
:100000000C945D000C9485000C9485000C94850084
:100010000C9485000C9485000C9485000C9485004C
:100020000C9485000C9485000C9485000C9485003C
:100030000C9485000C9485000C9485000C9485002C
:100040000C948C020C9485000C9485000C94850013
:100050000C9485000C9485000C9485000C9485000C
:100060000C9485000C94850000000008000201003B
:100070000003040700000000000000000000000072
:10008000250028002B0000000000240027002A0083
:10009000040404040404040402020202020203032E
:1000A0000303030301020408102040800102040836
:1000B0001020010204081020450411241FBECFEFB8
:1000C000D8E0DEBFCDBF11E0A0E0B1E0E8E8FBE0A2
:1000D00002C005900D92A632B107D9F721E0A6E241
:1000E000B1E001C01D92AD34B207E1F710E0CDE5FB
:1000F000D0E004C02197FE010E94BC05CC35D10799
:10010000C9F70E94D6020C94C2050C94000090E03E
:10011000FC01EC55FF4F249180579F4FFC018491C7
:10012000882399F090E0880F991FFC01EA57FF4F50
:10013000A591B491FC01E458FF4F859194918FB73C
:10014000F894EC91E22BEC938FBF0895AF92BF929D
:10015000CF92DF92EF92FF920F931F93CF93DF9393
:100160006C017B018B01040F151FEB015E01AE18C2
:10017000BF08C017D10759F06991D601ED91FC91E4
:100180000190F081E02DC6010995892B79F7C50111
:10019000DF91CF911F910F91FF90EF90DF90CF9063
:1001A000BF90AF90089590E0FC01E859FF4F249173
:1001B000FC01EC55FF4F3491FC01E057FF4FE491F7
:1001C000EE23C9F0222339F0233001F1A8F42130C5
:1001D00019F1223029F1F0E0EE0FFF1FE458FF4F34
:1001E000A591B4918FB7F894EC91611126C0309528
:1001F0003E233C938FBF08952730A9F02830C9F0E3
:10020000243049F7809180008F7D03C08091800069
:100210008F7780938000DFCF84B58F7784BDDBCF6D
:1002200084B58F7DFBCF8091B0008F778093B00035
:10023000D2CF8091B0008F7DF9CF3E2BDACF3FB780
:10024000F89480912B0190912C01A0912D01B091F7
:100250002E0126B5A89B05C02F3F19F00196A11DC0
:10026000B11D3FBFBA2FA92F982F8827BC01CD0100
:10027000620F711D811D911D42E0660F771F881F5F
:10028000991F4A95D1F70895089590E080E0089568
:10029000CF93DF93EC0160E08E810E94D30061E098
:1002A0008E810E94D30060E08E810E94D3008BE893
:1002B00091E00197F1F7DF91CF910895CF92DF920E
:1002C000EF92FF920F931F93CF93DF936C017C010A
:1002D00087E0E80EF11CD0E0C0E0062F10E0B80186
:1002E0000C2E02C0759567950A94E2F76170F701CC
:1002F00081917F010E94D3002196C430D10579F706
:10030000C601DF91CF911F910F91FF90EF90DF9089
:10031000CF900C944801CF92DF92EF92FF920F930F
:100320001F93CF93DF93EC01F62E642F8C810E94F4
:10033000D3008D818F3F19F060E00E94D3000F2D14
:1003400010E08F8584FF25C06E0187E0C80ED11CA8
:10035000F12CE12CB8010E2C02C0759567950A941A
:10036000E2F76170F60181916F010E94D300FFEF07
:10037000EF1AFF0A88E0E816F10461F7CE01DF9179
:10038000CF911F910F91FF90EF90DF90CF900C9441
:100390004801B80184E0759567958A95E1F7CE012B
:1003A0000E945E016F2DCE01DF91CF911F910F91C1
:1003B000FF90EF90DF90CF900C945E0140E0682FAB
:1003C00085E391E00C948B01CF93DF93823029F485
:1003D0009091440198609093440180934801109259
:1003E000490180E480934A0180E180934B0180E5DC
:1003F00080934C01809139010E94870080913A01DD
:100400008F3F11F00E94870080913B010E9487007E
:10041000C5E3D1E09E01255331408091440184FD24
:100420000AC084E090E02196281739073CF48E81B9
:100430000E948700EFCF88E090E0F5CF8BE39DE04E
:100440000197F1F760E0809139010E94D30060E0EC
:1004500080913B010E94D30080913A018F3F19F0B7
:1004600060E00E94D3008091440184FD39C063E0C4
:1004700085E391E00E945E01CBE4D6E4CE010197D2
:10048000F1F763E085E391E00E945E012197F1F7C7
:1004900063E085E391E00E945E0183E592E00197CD
:1004A000F1F762E085E391E00E945E0180914401F2
:1004B00080620E94DE0184E0809345018CE00E940E
:1004C000DE0181E00E94DE018BE39FE10197F1F7FD
:1004D00082E08093460186E0DF91CF910C94DE01AB
:1004E00080620E94DE018BE496E40197F1F780912F
:1004F000440180620E94DE0183E592E00197F1F7FA
:100500008091440180620E94DE01D0CF41E00E94D0
:100510008B0181E090E008951F920F920FB60F9229
:1005200011242F933F938F939F93AF93BF93809109
:10053000270190912801A0912901B0912A013091C1
:10054000260123E0230F2D3758F50196A11DB11D7B
:10055000209326018093270190932801A0932901DD
:10056000B0932A0180912B0190912C01A0912D0133
:10057000B0912E010196A11DB11D80932B01909386
:100580002C01A0932D01B0932E01BF91AF919F91AB
:100590008F913F912F910F900FBE0F901F90189544
:1005A00026E8230F0296A11DB11DD2CF789484B501
:1005B000826084BD84B5816084BD85B5826085BD5F
:1005C00085B5816085BD80916E00816080936E00ED
:1005D00010928100809181008260809381008091DF
:1005E0008100816080938100809180008160809390
:1005F00080008091B10084608093B1008091B00050
:1006000081608093B00080917A00846080937A004A
:1006100080917A00826080937A0080917A00816074
:1006200080937A0080917A00806880937A0010929B
:10063000C10082E00E94E401CAE0D0E034E6232E4B
:10064000312C40E0442E40E0542E10E20DE291E3C4
:10065000692E2FED722E0E941F014B015C0188EE66
:10066000C82E83E0D82EE12CF12C0E941F016819BE
:1006700079098A099B09683E734081059105A8F3B1
:1006800021E0C21AD108E108F10888EE880E83E063
:10069000981EA11CB11CC114D104E104F10429F776
:1006A000F0E4F0937C0080917A00806480937A007B
:1006B00080917A0086FDFCCF60917800809179006E
:1006C000782F072E000C880B990B0E949B0425E3C2
:1006D0003EE54AEF5EE30E94FF040E9463044B0183
:1006E0007B0121E1E21A21E0F20AF0923401E0926A
:1006F000330182E18E9D90018F9D300D1124205C8D
:100700003E4F3093320120933101C901BE010E9456
:100710009405FB017093300160932F01F7FE93C0A5
:1007200081E191E088199909909334018093330114
:10073000009310018091330190913401843691052A
:1007400014F060921101BE010E949405482FCB0164
:10075000BE010E949405805D80931201405D40932C
:100760001301709216011E161F060CF06FC0109335
:1007700001012091310130913201C901B1010E9482
:100780009405CB01BE010E949405805D8093030116
:10079000C901BE010E949405282FCB01BE010E9411
:1007A0009405805D80930401205D20930601709282
:1007B000070180912F01909130019C01245631094D
:1007C0002436310508F055C060920201E1E08091C5
:1007D00048018111E0E0E195F0E0EB5CFE4F848997
:1007E00080680E94DE01EAE0F1E001900020E9F774
:1007F000AF014B5051406AE071E085E391E00E9407
:10080000A600E0914801E230F0F5E150F0E0EB5C49
:10081000FE4F84898B5F80680E94DE01E0E0F1E09A
:1008200001900020E9F7AF014150514060E071E0D4
:1008300085E391E00E94A6004114510409F40BCF16
:100840000E94000004CF1093100174CF37FF03C043
:100850003195219531093093320120933101F19581
:10086000E195F109F0933001E0932F01009301012C
:1008700080CF883C910524F0E2E3E0930201A6CF0B
:1008800010930201A3CFE1E0C1CFE5E3F1E01382D1
:1008900012828DE191E09183808382E084838FEFE7
:1008A000858383E0868384E0878385E0808786E094
:1008B000818787E0828713861486158616861786B9
:1008C00081E00C94E4010E946A046894B1110C94D4
:1008D000F90408950E94DE0488F09F5798F0B92F1C
:1008E0009927B751B0F0E1F0660F771F881F991F65
:1008F0001AF0BA95C9F714C0B13091F00E94F8040B
:10090000B1E008950C94F804672F782F8827B85F1A
:1009100039F0B93FCCF3869577956795B395D9F7BC
:100920003EF490958095709561957F4F8F4F9F4FC6
:100930000895E89409C097FB3EF4909580957095D2
:1009400061957F4F8F4F9F4F9923A9F0F92F96E91B
:10095000BB279395F695879577956795B795F11190
:10096000F8CFFAF4BB0F11F460FF1BC06F5F7F4F2D
:100970008F4F9F4F16C0882311F096E911C077233F
:1009800021F09EE8872F762F05C0662371F096E848
:10099000862F70E060E02AF09A95660F771F881F17
:1009A000DAF7880F9695879597F9089557FD90582F
:1009B000440F551F59F05F3F71F04795880F97FB23
:1009C000991F61F09F3F79F08795089512161306DD
:1009D0001406551FF2CF4695F1DF08C0161617060C
:1009E0001806991FF1CF8695710561050894089541
:1009F000E894BB2766277727CB0197F908950E94D3
:100A000012050C9483050E94750538F00E947C0540
:100A100020F0952311F00C946C050C9472051124B0
:100A20000C94F9040E94D60470F3959FC1F3950FBE
:100A300050E0551F629FF001729FBB27F00DB11D62
:100A4000639FAA27F00DB11DAA1F649F6627B00DF2
:100A5000A11D661F829F2227B00DA11D621F739FDB
:100A6000B00DA11D621F839FA00D611D221F749FE9
:100A70003327A00D611D231F849F600D211D822F30
:100A8000762F6A2F11249F5750409AF0F1F0882357
:100A90004AF0EE0FFF1FBB1F661F771F881F915084
:100AA0005040A9F79E3F510580F00C946C050C94C2
:100AB000F9045F3FE4F3983ED4F386957795679504
:100AC000B795F795E7959F5FC1F7FE2B880F911DAE
:100AD0009695879597F9089597F99F6780E870E054
:100AE00060E008959FEF80EC089500240A941616A4
:100AF000170618060906089500240A94121613060C
:100B0000140605060895092E0394000C11F4882399
:100B100052F0BB0F40F4BF2B11F460FF04C06F5FB5
:100B20007F4F8F4F9F4F089597FB072E16F4009429
:100B300007D077FD09D00E94A80507FC05D03EF438
:100B4000909581959F4F0895709561957F4F089579
:100B5000AA1BBB1B51E107C0AA1FBB1FA617B707E3
:100B600010F0A61BB70B881F991F5A95A9F78095FF
:100B70009095BC01CD010895EE0FFF1F0590F491F3
:100B8000E02D0994F894FFCF3D202030302E302006
:100B9000460054656D70203D202030302E302043BB
:0E0BA00000000000008602A60045014401008E
:107E0000112484B714BE81FFF0D085E080938100F7
:107E100082E08093C00088E18093C10086E0809377
:107E2000C20080E18093C4008EE0C9D0259A86E02C
:107E300020E33CEF91E0309385002093840096BBD3
:107E4000B09BFECF1D9AA8958150A9F7CC24DD24C4
:107E500088248394B5E0AB2EA1E19A2EF3E0BF2EE7
:107E6000A2D0813461F49FD0082FAFD0023811F036
:107E7000013811F484E001C083E08DD089C08234E0
:107E800011F484E103C0853419F485E0A6D080C0E4
:107E9000853579F488D0E82EFF2485D0082F10E0AE
:107EA000102F00270E291F29000F111F8ED06801E7
:107EB0006FC0863521F484E090D080E0DECF843638
:107EC00009F040C070D06FD0082F6DD080E0C81688
:107ED00080E7D80618F4F601B7BEE895C0E0D1E017
:107EE00062D089930C17E1F7F0E0CF16F0E7DF06D8
:107EF00018F0F601B7BEE89568D007B600FCFDCFD4
:107F0000A601A0E0B1E02C9130E011968C91119780
:107F100090E0982F8827822B932B1296FA010C0160
:107F200087BEE89511244E5F5F4FF1E0A038BF0790
:107F300051F7F601A7BEE89507B600FCFDCF97BE46
:107F4000E89526C08437B1F42ED02DD0F82E2BD052
:107F50003CD0F601EF2C8F010F5F1F4F84911BD097
:107F6000EA94F801C1F70894C11CD11CFA94CF0C13
:107F7000D11C0EC0853739F428D08EE10CD085E9AC
:107F80000AD08FE07ACF813511F488E018D01DD067
:107F900080E101D065CF982F8091C00085FFFCCF94
:107FA0009093C60008958091C00087FFFCCF809118
:107FB000C00084FD01C0A8958091C6000895E0E648
:107FC000F0E098E1908380830895EDDF803219F02E
:107FD00088E0F5DFFFCF84E1DECF1F93182FE3DFCA
:107FE0001150E9F7F2DF1F91089580E0E8DFEE27F6
:047FF000FF270994CA
:027FFE00040479
:00000001FF
