:020000040000FA
:100000000C9462000C948A000C948A000C948A0070
:100010000C948A000C948A000C948A000C948A0038
:100020000C948A000C948A000C948A000C948A0028
:100030000C948A000C94BA030C948A000C948A00E5
:100040000C9470030C948A000C948A000C948A001F
:100050000C948A000C948A000C948A000C948A00F8
:100060000C948A000C948A000000000024002700F1
:100070002A0000000000250028002B0000000000DE
:1000800023002600290004040404040404040202DA
:100090000202020203030303030301020408102007
:1000A0004080010204081020010204081020000012
:1000B0000008000201000003040700000000000027
:1000C0000000F00411241FBECFEFD8E0DEBFCDBF8B
:1000D00011E0A0E0B1E0E2E7FAE002C005900D9285
:1000E000A036B107D9F721E0A0E6B1E001C01D922A
:1000F000AD38B207E1F710E0C2E6D0E004C02197C6
:10010000FE010E943105C136D107C9F70E94E10303
:100110000C9437050C940000AF92BF92CF92DF92FF
:10012000EF92FF920F931F93CF93DF936C017B01AC
:100130008B01040F151FEB015E01AE18BF08C0173D
:10014000D10759F06991D601ED91FC910190F081B0
:10015000E02DC6010995892B79F7C501DF91CF9173
:100160001F910F91FF90EF90DF90CF90BF90AF90D5
:100170000895833081F028F4813099F08230A9F01D
:1001800008958730A9F08830C9F08430B1F48091A7
:1001900080008F7D03C0809180008F7780938000E6
:1001A000089584B58F7784BD089584B58F7DFBCF86
:1001B0008091B0008F778093B00008958091B00057
:1001C0008F7DF9CFCF93DF93282F30E0F901E255EF
:1001D000FF4F8491F901E656FF4FD491F901EA5798
:1001E000FF4FC491CC23A1F081110E94B900EC2FE4
:1001F000F0E0EE0FFF1FE458FF4FA591B491EC9192
:10020000ED2381E090E009F480E0DF91CF91089543
:1002100080E090E0FACF1F93CF93DF93282F30E058
:10022000F901E255FF4F8491F901E656FF4FD49151
:10023000F901EA57FF4FC491CC23A9F0162F811181
:100240000E94B900EC2FF0E0EE0FFF1FEE58FF4FB9
:10025000A591B4918FB7F894EC91111108C0D09585
:10026000DE23DC938FBFDF91CF911F910895DE2BAA
:10027000F8CFCF93DF9390E0FC01E656FF4F249137
:100280008A579F4FFC0184918823C9F090E0880F22
:10029000991FFC01E859FF4FA591B491FC01EE585C
:1002A000FF4FC591D49161110DC09FB7F8948C9107
:1002B000209582238C938881282328839FBFDF91F8
:1002C000CF910895623051F49FB7F8943C91822FFA
:1002D000809583238C93E8812E2BEFCF8FB7F894F2
:1002E000EC912E2B2C938FBFEACF089590E080E005
:1002F0000895FC0101900020E9F73197AF01481BF8
:10030000590BBC0185E791E00C948C008F929F9271
:10031000AF92BF920F931F93CF93DF93CDB7DEB70A
:10032000A1970FB6F894DEBF0FBECDBF19A2423021
:1003300008F44AE08E010F5D1F4F842E912CB12CE2
:10034000A12CA50194010E940F05E62FB901CA0155
:10035000EA30F4F4E05DD801EE938D01232B242BD9
:10036000252B79F790E080E0109719F0CD010E94DD
:100370007901A1960FB6F894DEBF0FBECDBFDF9115
:10038000CF911F910F91BF90AF909F908F90089544
:10039000E95CE1CFCF93DF93EC0160E08E810E94B6
:1003A0000B0161E08E810E940B0160E08E810E9452
:1003B0000B018BE891E00197F1F7DF91CF91089560
:1003C000CF92DF92EF92FF920F931F93CF93DF9321
:1003D0006C017C0187E0E80EF11CD0E0C0E0062F44
:1003E00010E0B8010C2E02C0759567950A94E2F7EB
:1003F0006170F70181917F010E940B012196C43049
:10040000D10579F7C601DF91CF911F910F91FF9030
:10041000EF90DF90CF900C94CA01CF92DF92EF92D1
:10042000FF920F931F93CF93DF93EC01F62E642F6F
:100430008C810E940B018D818F3F19F060E00E943A
:100440000B010F2D10E08F8584FF25C06E0187E022
:10045000C80ED11CF12CE12CB8010E2C02C07595F0
:1004600067950A94E2F76170F60181916F010E942D
:100470000B01FFEFEF1AFF0A88E0E816F10461F7BD
:10048000CE01DF91CF911F910F91FF90EF90DF9000
:10049000CF900C94CA01B80184E0759567958A9550
:1004A000E1F7CE010E94E0016F2DCE01DF91CF91E7
:1004B0001F910F91FF90EF90DF90CF900C94E0018F
:1004C00040E0682F85E791E00C940D02CF93DF9315
:1004D000613029F090918401986090938401609339
:1004E00088011092890190E490938A0180938B0196
:1004F000805C80938C0161E0809179010E943901D8
:1005000080917A018F3F19F061E00E94390161E02A
:1005100080917B010E943901C5E7D1E09E012557FA
:1005200031408091840184FD0BC084E090E02196ED
:100530002817390744F461E08E810E943901EECF1B
:1005400088E090E0F4CF8BE39DE00197F1F760E065
:10055000809179010E940B0160E080917B010E94F3
:100560000B0180917A018F3F19F060E00E940B012E
:100570008091840184FD39C063E085E791E00E94A9
:10058000E001CBE4D6E4CE010197F1F763E085E723
:1005900091E00E94E0012197F1F763E085E791E0A7
:1005A0000E94E00183E592E00197F1F762E085E7C0
:1005B00091E00E94E0018091840180620E946002CB
:1005C00084E0809385018CE00E94600281E00E94BB
:1005D00060028BE39FE10197F1F782E0809386014F
:1005E00086E0DF91CF910C94600280620E946002ED
:1005F0008BE496E40197F1F78091840180620E9478
:10060000600283E592E00197F1F7809184018062B6
:100610000E946002D0CF90918801691710F06FEFAF
:10062000690FE62FF0E0EB58FE4F9489890F806840
:100630000C94600241E00E940D0281E090E0089578
:10064000CF92DF92EF92FF926B017C0141E06DE26D
:1006500085E791E00E940D0266277727CB016C1990
:100660007D098E099F094AE00E9486010196FF904C
:10067000EF90DF90CF900895CF93DF938091730137
:10068000909174010197F9F4C0916D01D0916E01C0
:100690002196D0936E01C0936D0161E08EE00E94BF
:1006A0000B03BE01DD0F880B990B97FF08C00E945A
:1006B000200389E191E0DF91CF910C9479014AE028
:1006C0000E948601F6CFDF91CF910895BC01990F6A
:1006D000880B990B97FD0C9420034AE00C9486013B
:1006E0001F920F920FB60F9211242F933F938F9367
:1006F0009F93AF93BF938091650190916601A09104
:100700006701B09168013091640123E0230F2D3718
:1007100058F50196A11DB11D2093640180936501D8
:1007200090936601A0936701B09368018091600186
:1007300090916101A0916201B09163010196A11DA8
:10074000B11D8093600190936101A0936201B09309
:100750006301BF91AF919F918F913F912F910F9026
:100760000FBE0F901F90189526E8230F0296A11D2B
:10077000B11DD2CF1F920F920FB60F9211242F935B
:100780003F934F935F936F937F938F939F93AF9319
:10079000BF93EF93FF93E0916901F0916A0109958E
:1007A000FF91EF91BF91AF919F918F917F916F9149
:1007B0005F914F913F912F910F900FBE0F901F901F
:1007C0001895789484B5826084BD84B5816084BDB9
:1007D00085B5826085BD85B5816085BD80916E00DF
:1007E000816080936E001092810080918100826010
:1007F000809381008091810081608093810080914D
:1008000080008160809380008091B100846080933B
:10081000B1008091B00081608093B00080917A0037
:10082000846080937A0080917A00826080937A005D
:1008300080917A00816080937A0080917A0080684C
:1008400080937A001092C10064E084E10E94660205
:1008500060E084E00E94390162E082E00E94390198
:1008600080E1809381001092800088EA91E6909365
:1008700087008093860084E1809381008CE393E07D
:1008800090936A018093690181E080936F000E94D8
:1008900060028BE39FE10197F1F760E080E00E9446
:1008A0000B038CE091E00E94790161E080E00E94FE
:1008B0000B038BE191E00E94790162E080E00E94ED
:1008C0000B038AE291E00E94790186E0D82E00E0D5
:1008D00010E0EE24E394F12C82E00E94E200892BE8
:1008E00061F463E080E00E940B038CE391E00E94DE
:1008F0007901F0927401E0927301809173019091FB
:100900007401019709F065C084E00E94E200813023
:100910009105F1F42091710130917201232BC1F402
:10092000C0916F01D09170012196D0937001C09356
:100930006F01909372018093710160E08EE00E94DC
:100940000B03CE010E94660389E191E00E947901C8
:1009500084E00E94E200892B51F480917101909112
:100960007201019721F4109272011092710180912D
:100970006D0190916E010A9761F580916F019091E0
:100980007001D89EE001D99ED00D1124D0936C0146
:10099000C0936B01109274011092730162E08EE0BB
:1009A0000E940B03CE010E94660389E191E00E9440
:1009B000790163E080E00E940B038BE491E00E94E8
:1009C00079011092700110926F0110926E011092D5
:1009D0006D010115110509F47FCF0E9400007CCF45
:1009E000E5E7F1E01382128284E091E09183808355
:1009F0008DE084838FEF85838CE086838BE0878313
:100A00008AE0808789E0818788E082871386148660
:100A100015861686178661E080E10C946602A1E2D5
:100A20001A2EAA1BBB1BFD010DC0AA1FBB1FEE1F68
:100A3000FF1FA217B307E407F50720F0A21BB30BB3
:100A4000E40BF50B661F771F881F991F1A9469F72F
:100A500060957095809590959B01AC01BD01CF018B
:100A60000895EE0FFF1F0590F491E02D0994F8947E
:100A7000FFCF000000001A038C007601750143755A
:100A80007272656E7420484220203A200054696DCD
:100A90006520696E20536563203A2000484220702B
:100AA0006572204D696E20203A20302E3000484279
:100AB00020436F756E74696E67202E2E005072652C
:100AC000737320427574746F6E20616761696E2E56
:020AD000000024
:107E0000112484B714BE81FFF0D085E080938100F7
:107E100082E08093C00088E18093C10086E0809377
:107E2000C20080E18093C4008EE0C9D0259A86E02C
:107E300020E33CEF91E0309385002093840096BBD3
:107E4000B09BFECF1D9AA8958150A9F7CC24DD24C4
:107E500088248394B5E0AB2EA1E19A2EF3E0BF2EE7
:107E6000A2D0813461F49FD0082FAFD0023811F036
:107E7000013811F484E001C083E08DD089C08234E0
:107E800011F484E103C0853419F485E0A6D080C0E4
:107E9000853579F488D0E82EFF2485D0082F10E0AE
:107EA000102F00270E291F29000F111F8ED06801E7
:107EB0006FC0863521F484E090D080E0DECF843638
:107EC00009F040C070D06FD0082F6DD080E0C81688
:107ED00080E7D80618F4F601B7BEE895C0E0D1E017
:107EE00062D089930C17E1F7F0E0CF16F0E7DF06D8
:107EF00018F0F601B7BEE89568D007B600FCFDCFD4
:107F0000A601A0E0B1E02C9130E011968C91119780
:107F100090E0982F8827822B932B1296FA010C0160
:107F200087BEE89511244E5F5F4FF1E0A038BF0790
:107F300051F7F601A7BEE89507B600FCFDCF97BE46
:107F4000E89526C08437B1F42ED02DD0F82E2BD052
:107F50003CD0F601EF2C8F010F5F1F4F84911BD097
:107F6000EA94F801C1F70894C11CD11CFA94CF0C13
:107F7000D11C0EC0853739F428D08EE10CD085E9AC
:107F80000AD08FE07ACF813511F488E018D01DD067
:107F900080E101D065CF982F8091C00085FFFCCF94
:107FA0009093C60008958091C00087FFFCCF809118
:107FB000C00084FD01C0A8958091C6000895E0E648
:107FC000F0E098E1908380830895EDDF803219F02E
:107FD00088E0F5DFFFCF84E1DECF1F93182FE3DFCA
:107FE0001150E9F7F2DF1F91089580E0E8DFEE27F6
:047FF000FF270994CA
:027FFE00040479
:00000001FF
